:1000000072C00000A0C000009EC000009CC00000A4
:100010009AC0000098C0000096C0000094C0000084
:1000200092C000005AC4000058C4000056C400002A
:100030008AC0000088C0000086C0000084C00000A4
:1000400082C0000080C000007EC000007CC00000B4
:100050007AC0000078C0000076C00000F4C3000041
:1000600072C00000C7C300009CC300006CC0000049
:100070006AC0000068C0000066C0000064C00000E4
:1000800062C0000060C000005EC000005CC00000F4
:100090005FC3000034C3000056C0000054C000001D
:1000A00052C0000050C000004EC000004CC0000014
:1000B0004AC0000048C0000046C0000044C0000024
:1000C00042C0000040C000003EC00000EFC200007F
:1000D000C4C2000038C0000097C200006CC200001B
:1000E00032C00000770411241FBECFEFD1E2DEBF83
:1000F000CDBF00E00CBF13E0A0E0B2E0E2E6F3E128
:1001000000E00BBF02C007900D92AE32B107D9F7E5
:1001100026E0AEE2B3E001C01D92A133B207E1F7E1
:1001200010E0C3E7D0E000E006C021970109802F6E
:10013000FE010E94A709C237D10780E00807A9F78E
:1001400082D40C94AF095CCFCF92DF92EF92FF92F2
:10015000CF93DF93EC016A017B01E889F98982E0A2
:100160008083C11481EED806E104F104A1F060E0BF
:1001700079E08DE390E0A70196010E948509215066
:10018000310941095109569547953795279521150C
:1001900080E1380798F0E889F989108260E874E80E
:1001A0008EE190E0A70196010E9485092150310956
:1001B000410951095695479537952795EC85FD8559
:1001C0003083EE85FF852083188EEC89FD8986E0DB
:1001D0008083EA89FB89808180618083EA89FB8949
:1001E000808188608083EA89FB8980818068808340
:1001F000EA89FB8980818F7D8083DF91CF91FF9099
:10020000EF90DF90CF900895ECEDF5E090E02FEFC8
:100210003FEF981791F04191242748E0B9016170B0
:10022000772736952795672B21F051E0252750EA4F
:100230003527415099F79F5FECCF922F832F089578
:10024000AF92BF92CF92DF92EF92FF920F931F93E4
:10025000CF93DF936C017B018B01040F151FEB0122
:100260005E01AE18BF08C017D10759F06991D601D9
:10027000ED91FC910190F081E02DC6011995892B3B
:1002800079F7C501DF91CF911F910F91FF90EF900A
:10029000DF90CF90BF90AF900895FC01A089B18905
:1002A0008C91A689B78982FD0FC09C91818D8F5F4B
:1002B0008F73228D821749F0A18DAE0FBF2FB11D14
:1002C0005D969C93818F08958C910895FC01538DC8
:1002D000448D252F30E0842F90E0821B930B541720
:1002E00010F0CF96089501970895FC01918D828DAD
:1002F000981761F0A28DAE0FBF2FB11D5D968C9146
:10030000928D9F5F9F73928F90E008958FEF9FEF84
:100310000895FC01918D828D981731F0828DE80F40
:10032000F11D858D90E008958FEF9FEF0895FC01FA
:10033000918D228D892F90E0805C9F4F821B9109C7
:100340008F73992708958FE593E0F1DF21E0892BE2
:1003500009F420E0822F08958CEF93E0E8DF21E09C
:10036000892B09F420E0822F089589E994E0DFDFEA
:1003700021E0892B09F420E0822F089586E395E09F
:10038000D6DF21E0892B09F420E0822F0895FC01BB
:10039000A48DA80FB92FB11DA35ABF4F2C91848DE6
:1003A00090E001968F739927848FA689B7892C9343
:1003B000A089B1898C91837080648C93938D848D96
:1003C000981306C00288F389E02D80818F7D808399
:1003D0000895EF92FF920F931F93CF93DF93EC0159
:1003E00081E0888F9B8D8C8D98131AC0E889F989DC
:1003F000808185FF15C09FB7F894EE89FF896083DF
:10040000E889F98980818370806480839FBF81E05F
:1004100090E0DF91CF911F910F91FF90EF900895A1
:10042000F62E0B8D10E00F5F1F4F0F731127E02E7C
:100430008C8D8E110BC00FB607FCFACFE889F989B5
:10044000808185FFF5CFCE01A2DFF2CFEB8DEC0FDF
:10045000FD2FF11DE35AFF4FF0829FB7F8940B8FE9
:10046000EA89FB8980818062D0CFCF93DF93EC0152
:10047000888D8823B1F0AA89BB89E889F9898C9194
:1004800085FD03C0808186FD0CC00FB607FCF7CF49
:100490008C9185FFF2CF808185FFEDCFCE0177DF94
:1004A000EACFDF91CF91089580E090E0892B21F091
:1004B00065DF81110E94000080E090E0892B21F02F
:1004C00054DF81110E94000080E090E0892B21F030
:1004D00043DF81110E94000080E090E0892B21F031
:1004E00032DF81110C94000008952FB7F8946091C9
:1004F00035037091360380913703909138032FBFF5
:100500000895FC0101900020E9F73197AF01481BE5
:10051000590BBC0186E395E093CE8F929F92AF92E8
:10052000BF920F931F93CF93DF93CDB7DEB7A19701
:100530000FB6F894DEBF0FBECDBF19A2423008F44B
:100540004AE08E010F5D1F4F842E912CB12CA12CFF
:10055000A5019401DAD6E62FB901CA01EA30ECF41C
:10056000E05DD801EE938D01232B242B252B81F701
:1005700090E080E0109711F0CD01C3DFA1960FB697
:10058000F894DEBF0FBECDBFDF91CF911F910F91C9
:10059000BF90AF909F908F900895E95CE2CFCF938A
:1005A000DF93AFDFEC018AE192E0ABDF8C0F9D1FA0
:1005B000DF91CF9108951F920F920FB60F921124E1
:1005C0000BB60F922F933F934F935F936F937F934D
:1005D0008F939F93AF93BF93EF93FF938FE593E038
:1005E000D6DEFF91EF91BF91AF919F918F917F9157
:1005F0006F915F914F913F912F910F900BBE0F9094
:100600000FBE0F901F9018951F920F920FB60F926A
:1006100011240BB60F922F933F934F935F936F93D9
:100620007F938F939F93AF93BF93EF93FF938FE548
:1006300093E033DEFF91EF91BF91AF919F918F9146
:100640007F916F915F914F913F912F910F900BBED2
:100650000F900FBE0F901F9018951F920F920FB61C
:100660000F9211240BB60F922F933F934F935F93EA
:100670006F937F938F939F93AF93BF93EF93FF936A
:100680008CEF93E084DEFF91EF91BF91AF919F914A
:100690008F917F916F915F914F913F912F910F902B
:1006A0000BBE0F900FBE0F901F9018951F920F92C8
:1006B0000FB60F9211240BB60F922F933F934F93C7
:1006C0005F936F937F938F939F93AF93BF93EF93BA
:1006D000FF938CEF93E0E1DDFF91EF91BF91AF913C
:1006E0009F918F917F916F915F914F913F912F914A
:1006F0000F900BBE0F900FBE0F901F9018951F927A
:100700000F920FB60F9211240BB60F922F933F93B7
:100710004F935F936F937F938F939F93AF93BF9309
:10072000EF93FF9389E994E032DEFF91EF91BF915F
:10073000AF919F918F917F916F915F914F913F9179
:100740002F910F900BBE0F900FBE0F901F9018951A
:100750001F920F920FB60F9211240BB60F922F9388
:100760003F934F935F936F937F938F939F93AF9339
:10077000BF93EF93FF9389E994E08FDDFF91EF91B1
:10078000BF91AF919F918F917F916F915F914F91A9
:100790003F912F910F900BBE0F900FBE0F901F90A7
:1007A00018951F920F920FB60F9211240BB60F924D
:1007B0002F933F934F935F936F937F938F939F9369
:1007C000AF93BF93EF93FF9386E395E0E0DDFF9156
:1007D000EF91BF91AF919F918F917F916F915F91B9
:1007E0004F913F912F910F900BBE0F900FBE0F9026
:1007F0001F9018951F920F920FB60F9211240BB6EF
:100800000F922F933F934F935F936F937F938F93A9
:100810009F93AF93BF93EF93FF9386E395E03DDD06
:10082000FF91EF91BF91AF919F918F917F916F91C8
:100830005F914F913F912F910F900BBE0F900FBE84
:100840000F901F9018951F920F920FB60F921124C0
:100850002F933F938F939F93AF93BF9380913503D3
:1008600090913603A0913703B0913803309134034F
:1008700023E0230F2D3758F50196A11DB11D2093BC
:1008800034038093350390933603A0933703B093DA
:1008900038038091300390913103A0913203B091DD
:1008A00033030196A11DB11D809330039093310352
:1008B000A0933203B0933303BF91AF919F918F9177
:1008C0003F912F910F900FBE0F901F90189526E823
:1008D000230F0296A11DB11DD2CF1F920F920FB60A
:1008E0000F9211240F900FBE0F901F901895EFE5F7
:1008F000F3E01382128248EE53E060E070E044833C
:100900005583668377838CE092E09183808325E32F
:1009100031E03587248724E331E03787268720E3D9
:1009200031E0318B208B21E331E0338B228B22E3CA
:1009300031E0358B248B26E331E0378B268B118E0B
:10094000128E138E148EECEFF3E013821282448326
:100950005583668377839183808325ED30E03587E7
:10096000248724ED30E03787268720ED30E0318B77
:10097000208B21ED30E0338B228B22ED30E0358B64
:10098000248B26ED30E0378B268B118E128E138E42
:10099000148EE9E9F4E0138212824483558366835E
:1009A0007783918380832DEC30E0358724872CEC8E
:1009B00030E03787268728EC30E0318B208B29EC1C
:1009C00030E0338B228B2AEC30E0358B248B2EECFD
:1009D00030E0378B268B118E128E138E148EE6E349
:1009E000F5E0138212824483558366837783918373
:1009F000808385EC90E09587848784EC90E09787EE
:100A0000868780EC90E0918B808B81EC90E0938BDB
:100A1000828B82EC90E0958B848B86EC90E0978BB8
:100A2000868B118E128E138E148EE3EDF5E01482F8
:100A300083E0858382E0868388EE93E090932706A7
:100A4000809326060895789484B5826084BD84B529
:100A5000816084BD85B5826085BD85B5816085BDB9
:100A600080916E00816080936E0010928100809171
:100A700081008260809381008091810081608093F9
:100A80008100809180008160809380008091B1001E
:100A900084608093B1008091B00081608093B00049
:100AA000809191008260809391008091910081609B
:100AB000809391008091900081608093900080915C
:100AC000A10082608093A1008091A1008160809349
:100AD000A1008091A00081608093A00080912101FD
:100AE00082608093210180912101816080932101A6
:100AF0008091200181608093200180917A00846040
:100B000080937A0080917A00826080937A0080914D
:100B10007A00816080937A0080917A008068809367
:100B20007A001092C10040E052EC61E070E086E390
:100B300095E00ADB8DE192E032DD87E492E02FDD83
:100B40008DE192E02CDD8CE192E029DD21E0209323
:100B5000490383E080934A0310924C0310924B03A5
:100B600084E090E090934E0380934D0349E353E07B
:100B70005093500340934F032093510320E120935F
:100B8000520390935403809353039093560380939E
:100B9000550381E493E0909358038093570381E0D9
:100BA00090E090934203809341038091D805823076
:100BB00009F477C0833009F477C0813009F077C039
:100BC00089E994E09093D4058093D30540E05BE4F9
:100BD00060E070E08091D3059091D405B5DA809102
:100BE000D905823078F080910401806680930401F9
:100BF000809105018F7B80930501809105018F7D98
:100C0000809305018091D3059091D405DC01ED918D
:100C1000FC910284F385E02D199597FFF3CF109294
:100C20001C0610921D0610922506109224061092A2
:100C3000230610922206109221061092200688E8C0
:100C400093E190932706809326064FDC68517C4FF2
:100C50008F4F9F4F60935A0370935B0380935C03A5
:100C600090935D0310925E0310925903BB24B394DA
:100C700056E0A52E67E0962E04E010E0EE24E39403
:100C8000F12CE8E0CE2EE2E0DE2E88248A948091DA
:100C90005E03813001F170F0823009F493C104DC0D
:100CA000F6CF8CEF93E08ECF8FE593E08BCF86E38A
:100CB00095E088CF1ADC40905A0350905B03609017
:100CC0005C0370905D03461657066806790638F790
:100CD000B0925E03E4CF81E792E013DC60915903A8
:100CE00070E090E080E04AE018DC85E892E057DCB4
:100CF000E0915903B8E0EB9FF0011124E75BFC4F52
:100D00003081218142815381848195810680F781E0
:100D1000E02D6091D7056111ABC06091DA056111DA
:100D2000A7C06FEF630F673F08F0A2C0F0931F06E4
:100D3000E0931E063093DC052093DD055093DE051D
:100D40004093DF05253009F4B8C008F09FC021307A
:100D500008F0ACC0C0911C068C2F56DAEC2FF0E0E6
:100D6000ED52FA4F9187E1E0EC0FF0E0ED52FA4FCF
:100D70008187CE5FC0931C069091D9058091D805DC
:100D80009230C0F0823009F4E6C0833009F4E9C043
:100D9000813009F0ECC09091C80090649093C80035
:100DA00090910501906490930501909105019062E6
:100DB0009093050140911C0650E0843008F0DDC09E
:100DC0008091D3059091D405DC01ED91FC910280D6
:100DD000F381E02D6CED75E019959091D905809126
:100DE000D8059230B8F0823009F4CCC0833009F4D1
:100DF000CEC0813009F0D0C09091C80096FFFCCFE2
:100E0000909105019F7B90930501909105019F7D35
:100E100090930501843008F0C4C08091D30590916F
:100E2000D405DC01ED91FC910284F385E02D199548
:100E300097FFF3CF10921C0658DB209126063091C5
:100E40002706620F731F811D911D60932C067093FE
:100E50002D0680932E0690932F0680912206909166
:100E6000230601969093230680932206B092DA051A
:100E700080915E038F5F80935E03809159038F5F43
:100E8000823009F49CC08093590309CF2F3009F1B7
:100E90002031A9F1263009F05DCF81818093E005F2
:100EA00080818093E10520931C0654CF9093E00548
:100EB0008093E105A0921C064DCF81E02081318115
:100EC000232B09F480E081958093E0051092E105E1
:100ED000F1CF9C0144E0369527954A95E1F7220F22
:100EE000AC014F705527452B09F02F5F9093E0051B
:100EF0008093E1052093E20590921C062BCF9093FE
:100F0000E0058093E105282F220F2093E2059092BF
:100F10001C0630E020E040911C06C42FD0E051E0D8
:100F2000540FA52FB0E04E5F2817390709F412CFF0
:100F300061813296CD52DA4F698750931C06AD52CB
:100F4000BA4FEF012297588119965C9340931C0683
:100F50002F5F3F4FE0CF9091D00090649093D000EE
:100F60001FCF9091300190649093300119CF9091F0
:100F7000C00090649093C00013CF8091D5059091EC
:100F8000D60522CF9091D00096FFFCCF39CF90911B
:100F9000300196FFFCCF34CF9091C00096FFFCCF7C
:100FA0002FCF8091D5059091D605DC01ED91FC9174
:100FB0000284F385E02D199597FFF3CF3BCF109274
:100FC00059036DCE8091D805843040F58091D305CA
:100FD0009091D405DC01ED91FC910084F185E02D28
:100FE0001995C82F82DA40902C0650902D066090FB
:100FF0002E0670902F06461657066806790698F456
:101000001092DA058092DB058091240690912506E6
:10101000019690932506809324061BC08091D505E8
:101020009091D605D7CFCC23A1F080911D06C8178B
:1010300009F480C0C0931D0658DA6B5F7F4F8F4F55
:101040009F4F609328067093290680932A069093F9
:101050002B068091DA05811122CE10925E0345DACB
:1010600068517C4F8F4F9F4F60935A0370935B037F
:1010700080935C0390935D0380915903811106C0B6
:1010800084E992E08CDA8CE192E089DA809159036C
:10109000813009F004CE8CEB92E081DA83EE92E0AD
:1010A00030DA4AE061E070E080E090E036DA8AEE23
:1010B00092E027DA6091390370913A0390E080E082
:1010C00040E12BDA84EF92E01CDA60913B037091EF
:1010D0003C0390E080E042E020DA82E093E011DA25
:1010E00060913D0370913E0390E080E04AE015DAA4
:1010F00087E193E006DA60913F037091400390E04E
:1011000080E04AE00ADA8AE192E0FBD981E292E0EB
:1011100046DA8CE192E043DA8091530390915403D4
:1011200001968830910509F4BBC0909354038093D5
:101130005303B5CDDAD94090280650902906609027
:101140002A0670902B06641575058605970508F428
:1011500080CF10921D068091D905823050F0809189
:1011600005018F7B80930501809105018F7D809320
:10117000050110921C068091D805C0E0843040F132
:101180008091D5059091D605DC01ED91FC9100840C
:10119000F185E02D1995892B09F43FC08091D50583
:1011A0009091D605DC01ED91FC910284F385E02D50
:1011B000199590911C06E92FF0E0ED52FA4F8187C6
:1011C0009F5F90931C069034D8F2C1E0D9CFC1E064
:1011D0008091D3059091D405DC01ED91FC910084C0
:1011E000F185E02D1995892BC1F08091D30590915F
:1011F000D405DC01ED91FC910284F385E02D199575
:1012000090911C06E92FF0E0ED52FA4F81879F5F25
:1012100090931C069034D8F6DBCF809120069091F5
:10122000210601969093210680932006CC2361F03D
:10123000809124069091250601969093250680932F
:1012400024061092DA05E0CE80911C068730CCF39C
:10125000C82FD0E082500E940401CD52DA4F2F8176
:1012600038852327322723272817390761F08091F3
:1012700024069091250601969093250680932406D6
:101280001092DA05E6CE8091DD0587FDF0CFE0E033
:10129000F2E091918917C1F0CE16DF06D1F7E7CFC2
:1012A00010935403009353038091410390914203A0
:1012B000892B29F01092420310924103F0CCF09256
:1012C0004203E0924103EBCC83508230C8F690E0B9
:1012D00080E023E03091DE053695831788F6E22F13
:1012E000F0E0AC01440F551FA0911E06B0911F06FF
:1012F000A40FB51FED52FA4F41853285542F432F6D
:101300004D935C932E5F0196E5CFA1E21A2EAA1BA6
:10131000BB1BFD010DC0AA1FBB1FEE1FFF1FA217A5
:10132000B307E407F50720F0A21BB30BE40BF50BA2
:10133000661F771F881F991F1A9469F7609570952B
:10134000809590959B01AC01BD01CF010895EE0FF2
:10135000FF1F881F8BBF0790F691E02D1994F8941A
:10136000FFCF0102030405060F1000000000E90191
:101370002001660135029701750189010D0A002DD2
:101380002D2D2D2D2D2D2D2D2D2D2D2D2D2D2D2D8D
:101390002D2D2D2D2D2D2D2D2D2D2D2D2D2D2D2D7D
:1013A0002D2D2D2D2D2D2D2D00434F4E54524F4CB4
:1013B0004C494E4F204D6F64627573205254552036
:1013C0004D6173746572205465737420536B65743A
:1013D0006368002D2D2D2D2053656E64696E672086
:1013E00071756572792000202D2D2D2D2D2D2D2D1F
:1013F0002D2D2D2D2D002D2D2D2D2D2D2D2D2D2D4A
:1014000020575249544520524553504F4E53452082
:101410005245434549564544202D2D2D2D002D2D57
:101420002D2D2D2D2D2D2D2D205245414420524561
:1014300053504F4E5345205245434549564544204D
:101440002D2D2D2D00536C617665200020414443E5
:10145000303A20307800202C204469676974616C30
:10146000303A2000202C204D6F64627573436F75F5
:101470006E746572496E3A2000202C204D6F6462B4
:101480007573436F756E7465724F75743A20000002
:10149000FFFFFFFFFFFFFFFFFFFFFFFFFFFFFFFF5C
:1014A000FFFFFFFFFFFFFFFFFFFFFFFFFFFFFFFF4C
:1014B000FFFFFFFFFFFFFFFFFFFFFFFFFFFFFFFF3C
:1014C000FFFFFFFFFFFFFFFFFFFFFFFFFFFFFFFF2C
:1014D000FFFFFFFFFFFFFFFFFFFFFFFFFFFFFFFF1C
:1014E000FFFFFFFFFFFFFFFFFFFFFFFFFFFFFFFF0C
:1014F000FFFFFFFFFFFFFFFFFFFFFFFFFFFFFFFFFC
:10150000BB1C4A95D2F7A02FB0E0A755BB4F199648
:101510004C9150E0012E02C0559547950A94E2F790
:1015200040FF0BC068297929718360831F5F1830E1
:1015300010F00F5F10E00196CCCF8094909486223B
:10154000972291828082F2CFE091B5043091B70466
:101550001092B60486E08093F204A9EAB4E0F0E0C9
:10156000EE0FFF1FEF5DFD4F20E01296321709F4DA
:1015700027CF1E969C911E971F968C911F97819343
:1015800091932F5FF2CF90E080E030CDEFEFE40F4A
:10159000E03108F07FCEF0E08827EE53F54F8F4F13
:1015A00010C0070907093B093B09220934094A0908
:1015B0004A094A094A094A094A094A094A090709D6
:1015C0003B09EE0FFF1F881F8BBF0790F691E02DA0
:1015D0001994F894FFCF0102030405060F100000D0
:1015E0000000F7022E0274024303A5028302970251
:1015F000FFFFFFFFFFFFFFFFFFFFFFFFFFFFFFFFFB
:10160000A617B70710F0A61BB70B881F991F5A958E
:10161000A9F780959095BC01CD01089511E0C4E132
:10162000D1E000E005C0802FFE01DCDF2196011D26
:10163000C531D10780E00807B1F7F894FFCF00006B
:1016400000000B026D019A015702CB01A901BD01F7
:1016500000000000DF026D017203DE023B03510354
:10166000C6020D0A0064697374616E636520736558
:101670006E736F720064697374616E63653D006EB2
:10168000616E00696E66006F766600636D0042658C
:101690006C6F7720746865206C6F776572206C6959
:1016A0006D6974004552524F5200FFFFFFFFFFFF6C
:1016B000FFFFFFFFFFFFFFFFFFFFFFFFFFFFFFFF3A
:1016C000FFFFFFFFFFFFFFFFFFFFFFFFFFFFFFFF2A
:1016D000FFFFFFFFFFFFFFFFFFFFFFFFFFFFFFFF1A
:1016E000FFFFFFFFFFFFFFFFFFFFFFFFFFFFFFFF0A
:1016F000FFFFFFFFFFFFFFFFFFFFFFFFFFFFFFFFFA
:1017000065206C6F776572206C696D697400455255
:10171000524F5200FFFFFFFFFFFFFFFFFFFFFFFFE2
:10172000FFFFFFFFFFFFFFFFFFFFFFFFFFFFFFFFC9
:10173000FFFFFFFFFFFFFFFFFFFFFFFFFFFFFFFFB9
:10174000FFFFFFFFFFFFFFFFFFFFFFFFFFFFFFFFA9
:10175000FFFFFFFFFFFFFFFFFFFFFFFFFFFFFFFF99
:10176000FFFFFFFFFFFFFFFFFFFFFFFFFFFFFFFF89
:10177000FFFFFFFFFFFFFFFFFFFFFFFFFFFFFFFF79
:10178000FFFFFFFFFFFFFFFFFFFFFFFFFFFFFFFF69
:10179000FFFFFFFFFFFFFFFFFFFFFFFFFFFFFFFF59
:1017A000FFFFFFFFFFFFFFFFFFFFFFFFFFFFFFFF49
:1017B000FFFFFFFFFFFFFFFFFFFFFFFFFFFFFFFF39
:1017C000FFFFFFFFFFFFFFFFFFFFFFFFFFFFFFFF29
:1017D000FFFFFFFFFFFFFFFFFFFFFFFFFFFFFFFF19
:1017E000FFFFFFFFFFFFFFFFFFFFFFFFFFFFFFFF09
:1017F000FFFFFFFFFFFFFFFFFFFFFFFFFFFFFFFFF9
:10180000DF90CF9008952AE0B701A6018BE39CE01A
:10181000DF91CF91FF90EF90DF90CF9041CF4F922B
:101820005F926F927F928F929F92AF92BF92CF9270
:10183000DF92EF92FF920F931F93CF936B017C0186
:10184000742EAC019B010E94722E6FEB72E081112D
:1018500026C046015701E894B7F82FEF3FEF4FE756
:101860005FE7C501B4010E94722E81110CC02FEFF9
:101870003FEF4FE75FE7C501B4010E94C12C63EC65
:1018800072E0181664F02FEF3FEF4FE75FE4C701F7
:10189000B6010E940B2E1816A4F467EC72E08BE3DD
:1018A0009CE0CF911F910F91FF90EF90DF90CF9030
:1018B000BF90AF909F908F907F906F905F904F9070
:1018C000E0CE2FEF3FEF4FE75FECC701B6010E947C
:1018D000C12C87FDE2CF20E030E0A901C701B601AD
:1018E0000E94C12C10E000E087FF0AC06DE28BE38C
:1018F0009CE00E943C028C01F7FAF094F7F8F09417
:10190000C0E060E070E080E09FE37C1641F020E002
:1019100030E040E251E40E94C52CCF5FF6CFA70132
:1019200096010E945D2C2B013C010E942D2D4B0144
:101930005C012AE0BC01A4018BE39CE0B1DE7C01E8
:10194000E00EF11ECC23C9F1C501B4010E94592D4E
:101950009B01AC01C301B2010E945C2C4B015C01F4
:101960006EE28BE39CE00E943C02E80EF91EC1503F
:1019700020F120E030E040E251E4C501B4010E94D2
:101980000F2E2B013C010E942D2D4B01B12CA12CBF
:101990002AE0B501A4018BE39CE082DEE80EF91E8B
:1019A000C501B4010E94592D9B01AC01C301B201D4
:1019B0000E945C2C4B015C01DACFC701CF911F91D3
:1019C0000F91FF90EF90DF90CF90BF90AF909F90DE
:1019D0008F907F906F905F904F9008950F931F931B
:1019E000CF93DF93EC014DDE8C016BEC72E0CE0106
:1019F00048DE800F911FDF91CF911F910F910895C5
:101A00006EEC72E086E99AE0E9DF60E083E00E9434
:101A1000270460E084E00E94270460E085E00E94E3
:101A2000270460E086E00E94270460E087E00E94CF
:101A3000270460E088E00C9427046BED72E086E9EF
:101A40009AE0CCDF81E080931D0808956AEE72E091
:101A500086E99AE0C3CF68EF72E086E99AE0BEDFDC
:101A600010921D0860E083E00E94270460E088E097
:101A70000E94270460E089E00E94270460E08AE079
:101A80000C94270466E073E086E99AE0A7CF63E14F
:101A900073E086E99AE0A2DF85E080931D0861E0AB
:101AA00083E00C94270462E273E086E99AE096DF13
:101AB00060E083E00C94270460E373E086E99AE039
:101AC0008DDF82E080931D088091F907811108C0A5
:101AD0008091A4078093A70761E088E00C94270415
:101AE0008091A307F7CF86E08093040260E473E05F
:101AF00086E99AE073DF1092A70760E088E00C9413
:101B000027046FE473E086E99AE068DF83E080935E
:101B10001D081092A70761E08BE00E94270460E097
:101B200083E00E94270460E084E00E94270460E0D4
:101B300085E00E94270460E086E00E94270460E0C0
:101B400087E00E94270460E088E00E94270460E0AC
:101B500089E00E94270460E08AE00C9427046EE587
:101B600073E086E99AE03ADF60E08BE00C942704AA
:101B70006CE673E086E99AE031CF6AE873E086E9C3
:101B80009AE02CCF69EA73E086E99AE027CF68EC07
:101B900073E086E99AE022CF67EE73E086E99AE087
:101BA0001DCF68E074E086E99AE018CF69E274E03E
:101BB00086E99AE013CF68E474E086E99AE00ECFF4
:101BC00068E674E086E99AE009CF69E874E086E99E
:101BD0009AE004CF68EA74E086E99AE0FFCE892BA8
:101BE00049F467EC74E086E99AE0F8DE87E090E07B
:101BF0000C944A056CED74E086E99AE0EFDE88E02B
:101C000090E0F6CF892B69F1809104028F5F8630D6
:101C1000D8F48093040262EF74E086E99AE0DEDE95
:101C20006091040286E99AE086DD6BEC72E086E959
:101C30009AE027DD809104028230B9F040F48823D5
:101C400061F0813079F0089510920402E4CF84307D
:101C500091F070F0853091F008958091DD078093C8
:101C6000FA0608958091F807FACF8091A407F7CF7C
:101C70008091AA07F4CF8091DE07F1CF8091A3076E
:101C8000EECF61E075E086E99AE0A8DE61E083E0EE
:101C90000E94270461E084E00E94270461E085E05F
:101CA0000E94270461E086E00E94270461E087E04B
:101CB0000E94270461E088E00E94270464EF71E03D
:101CC00080E090E00E94CD048FE30E94FF03892B07
:101CD00049F06FE075E086E99AE080DE81E080936C
:101CE000A807089569E175E086E99AE077DE65E284
:101CF00075E086E99AE072DE8AE090E00C944A058D
:101D0000C0CCAF92BF92CF92DF92EF92FF920F932F
:101D10001F93CF93DF9300D01F92CDB7DEB78C0116
:101D20006B017A01809172088333B9F45B01680119
:101D3000C40ED51EC016D10659F1DFD88FE051D997
:101D4000812F4FD9802F4DD90F5F1F4F80E049D988
:101D5000F50181935F01C7D8EDCF843349F5CDD824
:101D600019830A838F2D8F778B83EC8264E070E078
:101D7000CE0101969ED8A70170E060E0C6010E94E6
:101D80009430E114F10419F0B701C60192D8ABD830
:101D9000C7010F900F900F900F90DF91CF911F917F
:101DA0000F91FF90EF90DF90CF90BF90AF9008958C
:101DB000A4D80F3F110509F030F419820A831B8261
:101DC00063E070E0D5CF17FD0BC019820A8333E0C2
:101DD000169507953A95E1F7007E08600B83F0CFE2
:101DE000C80126E0969587952A95E1F7807E1983AC
:101DF0000A830115104C18F480618B83E1CF886150
:101E0000FCCF1F93CF93DF931F92CDB7DEB7182F70
:101E100080E591E00E942002812F7AD827E0129F6E
:101E2000F0011124E65CF74F22813381377041E0E5
:101E300050E0BE016F5F7F4F820F931F62DF898189
:101E40000F90DF91CF911F910895FC01808D883014
:101E500038F4218D328D232B19F0D3DF90E00895D3
:101E60008FEF9FEF0895CF93DF93FC0124852830F7
:101E700028F08FEF9FEFDF91CF910895EC01019053
:101E8000F081E02D0084F185E02D1995892B89F3EF
:101E90008C85B7DF90E0EFCFCF93DF931F92CDB764
:101EA000DEB741E050E0BE016F5F7F4F2ADF8981DE
:101EB0000F90DF91CF91089590E080E0EDCFCF9328
:101EC000DF93C4E1D0E0F8DF882361F061E070E0E7
:101ED00080E090E00E94CD042197A9F780E0DF9197
:101EE000CF91089581E0FBCF1F93CF93DF931F9293
:101EF0001F92CDB7DEB760E372E080E090E00E9411
:101F0000CD041FB7F8948091FE06811127C0E7E643
:101F1000F1E08491E8EBF1E09491E82FF0E0EE0F2E
:101F2000FF1FEC51FF4FA591B491EC91E92321F4EF
:101F300061E085E30E94270461E085E30E94540488
:101F40008CB580618CBD8CB580648CBD61E084E310
:101F50000E94540461E083E30E9454048091FE06D1
:101F60008F5F8093FE061FBF80910302282F30E011
:101F7000F901EE5CFE4FE491F0E0EE0FFF1FE2503E
:101F8000FF4F459154915093FD064093FC06F90193
:101F9000ED57FE4FE491E093FB0661E00E9454048C
:101FA0000E94730780E591E00E94200284E3809301
:101FB000720880E8BDD883DF882349F188E0B8D86B
:101FC0007BDF883021F580E1B3D876DF8031F9F40A
:101FD00080E0AED871DF182F811119C08FE190E039
:101FE0005BDF8330A1F480E48093FF0642E06EE182
:101FF00070E0812F1DD942E06FE170E0812F18D988
:102000001F5F183099F781E08093730853C087E30E
:102010008093720880E88CD852DF8823C1F088E072
:1020200087D84ADF883099F480E182D845DF182FBD
:10203000803169F480E07CD83FDF811108C089E3FA
:1020400090E02ADF843019F41093FF06DCCF83E39D
:102050008093720880E86CD832DF882341F180E1F8
:1020600067D82ADF803119F582E162D825DF823115
:10207000F1F480E05DD820DF811119C084E0809305
:10208000FF0615E51A8341E050E0BE016E5F7F4F09
:102090008BE190E00E94F807198341E050E0BE0117
:1020A0006F5F7F4F8AE190E00E94F807ACCF1092FB
:1020B000720880E00F900F90DF91CF911F910895EB
:1020C000CF92DF92EF92FF92CF93DF93CDB7DEB73F
:1020D000C254D1090FB6F894DEBF0FBECDBFFC01CC
:1020E000428153816481758123964CAF5DAF6EAFA1
:1020F0007FAF239781E023968FAF23972396CCACB5
:10210000DDACEEACFFAC2397CBAADCAAEDAAFEAA0D
:102110004DA75EA76FA778AB88ABCDA4DEA4EFA4D4
:10212000F8A8CFA2D8A6E9A6FAA68EABCBA8DCA8C1
:10213000EDA8FEA8C9A2DAA2EBA2FCA22DEB32E028
:102140003C8B2B8B9FEF9D8B9E8B9F8B188E3E879E
:102150002D878AA7CFA0D8A4E9A4FAA4CF86D88ACD
:10216000E98AFA8A8CA389A19AA1ABA1BCA189872B
:102170009A87AB87BC873A8329834B835C836D83C3
:102180007E8380917308882309F443C080E591E041
:102190000E94200246E050E067E072E089E090E0B3
:1021A0000E94F80744E050E0BE016D5F7F4F8FE072
:1021B00090E00E94F80744E050E0BE01615F7F4F6D
:1021C00081E090E00E94F80744E050E0BE016B5EC1
:1021D0007F4F85E090E00E94F80781E08C87898539
:1021E0009A85AB85BC8580935F0B9093600BA09321
:1021F000610BB093620BCE5BDF4F0FB6F894DEBF7E
:102200000FBECDBFDF91CF91FF90EF90DF90CF90C9
:1022100008956ADE882379F3B9CF2091FF0630E074
:10222000322F2227620F731F90E0982F8827860F86
:10223000971F32CECF93C82F462F61E070E00E94E7
:10224000180961E070E08C2FE8DF8111FACFCF919F
:102250000895CF93C82F80E591E00E94200268E0A6
:1022600070E08C2FCF91E6CFCF93C82F80E591E01F
:102270000E94200260E170E08C2FCF91DBCFCF93E2
:10228000DF93EC01888D883018F4EEDF88E0888FCA
:10229000DF91CF910895CF93C82F80E591E00E9400
:1022A000200263E070E08C2FCF91B7CFCF93DF9304
:1022B000EC018C858830C8F4EEDF843189F0882306
:1022C00079F0883169F021E08C3159F4E881F981A5
:1022D0000084F185E02DCE01199521E0892B09F4C8
:1022E00020E0822FDF91CF91089580E0FBCFCF9245
:1022F000DF92EF92FF92CF93DF93EC018C858830D1
:1023000058F4A7DF0E94FE046B017C018C85C3DFBB
:10231000811109C088E08C87DF91CF91FF90EF9009
:10232000DF90CF90089561E070E080E090E00E943F
:10233000CD040E94FE04AB01BC014C195D096E097D
:102340007F098D859E85B0E0A0E0481759076A0790
:102350007B07E0F28C8588DFDDCFCF93FC01C08D59
:1023600080E591E00E94200260E270E08C2F62DF45
:1023700062E070E08C2F51DF84FD15C062E070E0F8
:102380008C2F4BDF83FF0AC048E162E070E08C2FA6
:102390000E94180980E090E0CF91089580E591E0D7
:1023A0000E942002E5CF40E162E070E08C2F0E94A5
:1023B000180981E0F0CFDA01E091FF06F0E0FE2F8E
:1023C000EE27E60FF71F90E0982F8827A901BD019F
:1023D0008E0F9F1F96CC8F929F92AF92BF92CF92FB
:1023E000DF92EF92FF920F931F93CF93DF93CDB7BE
:1023F000DEB760970FB6F894DEBF0FBECDBF7C018D
:1024000090917208911115C018E0812F60960FB657
:10241000F894DEBF0FBECDBFDF91CF911F910F911A
:10242000FF90EF90DF90CF90BF90AF909F908F90F4
:10243000089508E0933309F404E06B0180E591E02E
:102440000E9420029E012F5F3F4F5901490110E079
:1024500063E070E0812FE1DEF40181934F01882376
:10246000B9F01F5F0113F4CF00E0F50181915F0126
:102470008D3149F0883139F08A51823020F00F5F78
:102480001013F3CFC1CF60E170E0802FD3DE102FA7
:10249000A12EB12C83EE93E00197F1F742E870E0B2
:1024A00060E0812F0E9418094FEF62E070E0812FF9
:1024B0000E941809B601C114D10491F4809105025B
:1024C0009091060201968115F0EC9F0708F45AC01E
:1024D00090930602809305026091050270910602B6
:1024E000812F0E94CF0886E0E3E1F2E0DE01199639
:1024F00001900D928A95E1F7F70183818F778C87A0
:1025000084818D8785818E87A7014E5F5F4F24E090
:1025100030E06CE070E0812F0E94AA08B601812FA4
:102520000E94BA0826E030E0AE01475F5F4F66E0E8
:1025300070E0812F0E94AA0861E070E0812F7ADEAE
:1025400027E02A9DC0012B9D900D11249C01265C43
:10255000374F7901F9011182108222E030E0AE019B
:10256000415F5F4F68E270E0812F25DF8F8598899A
:10257000982789279827F7019383828316821582EB
:10258000148243CF80E090ECA3CFCF92DF92EF9202
:10259000FF920F931F93CF93DF9300D000D0CDB75E
:1025A000DEB78C016B017A01FC01808D883008F464
:1025B0005BDE8DEB92E09A838983F60182819381C1
:1025C000A481B5818B839C83AD83BE83B701CE018B
:1025D000019601DFF801808F8830A0F4F586E4864B
:1025E000128E118E81E026960FB6F894DEBF0FBED4
:1025F000CDBFDF91CF911F910F91FF90EF90DF90B2
:10260000CF90089580E0EFCF7F928F929F92AF920C
:10261000BF92CF92DF92EF92FF920F931F93CF93CF
:10262000DF931F921F92CDB7DEB7782E8B014A0140
:10263000590122E030E0AE014F5F5F4F64E270E08D
:10264000BADEE980FA80FE24EF24FE24E00EF11EBB
:102650009701377040917208072D10E0433309F05D
:1026600042C0085F1F4F102F0027110F110F110FCD
:10267000C901800F911F4733C9F1A9014A0D5B1DA4
:102680004130584098F160E078E06B01C21AD30AFB
:10269000A601B4010E94F807A5014C195D09B40117
:1026A0006C0D7D1DC8010E94F807EA0CFB1CF98225
:1026B000EA8222E030E0AE014F5F5F4F64E270E0FB
:1026C000872D0E94AA080F900F90DF91CF911F9144
:1026D0000F91FF90EF90DF90CF90BF90AF909F90C1
:1026E0008F907F900895005F1F4FBDCFA501B4016B
:1026F000DACFEF92FF921F93CF93DF931F921F9237
:10270000CDB7DEB7182F22E030E0AE014F5F5F4F4C
:1027100060E270E050DEE980FA80FE24EF24FE24BF
:1027200022E030E0AE014F5F5F4F60E270E0812F4A
:1027300042DE89819A81982789279827E816F90629
:1027400089F487E0189FF0011124E65CF74FF582C9
:10275000E482C7010F900F90DF91CF911F91FF90FE
:10276000EF9008957C01DCCF1F93CF93DF93182F58
:1027700080E591E00E942002812FBBDFEC0163E045
:1027800070E0812F4ADD873121F08C3111F0D0E0EB
:10279000C0E0CE01DF91CF911F910895CF93DF93D9
:1027A000EC018C85883050F476DD873111F08C3166
:1027B00029F48C85D9DF8115984098F3DF91CF916A
:1027C0000895FC018485883008F4CECF90E080E045
:1027D00008959F92AF92BF92CF92DF92EF92FF92B5
:1027E0000F931F93CF93DF938C015B01942EE52E03
:1027F000FC01C688D788F08C80E591E00E94200219
:102800008F2D77DFC92DDE2D8C179D0708F4EC0185
:102810009E01A501B6018F2DF7DEF8018689978903
:102820008C0F9D1F978B868BCE01DF91CF911F91CF
:102830000F91FF90EF90DF90CF90BF90AF909F905F
:1028400008958F929F92AF92BF92CF92DF92EF92B4
:10285000FF920F931F93CF936C015B018A01FC01E0
:102860008485883048F480DF0817190740F081E03C
:1028700090E0F6019383828310E000E048C0F60107
:10288000C48578010130F8E01F0718F0E12C88E0DA
:10289000F82E80E591E00E9420028C2F2ADF4C0167
:1028A00063E070E08C2FB9DC873111F08C3119F5C1
:1028B0008E149F0470F380E591E00E94200297013E
:1028C000A50170E060E08C2F9FDE60E270E08C2F4D
:1028D000B1DC62E070E08C2FA0DC84FD0FC063E00F
:1028E00070E08C2F9ADC882309F4C1CF80E591E059
:1028F0000E942002EECFF12CE12CDDCF40E162E01E
:1029000070E08C2F0E941809EF2809F4B0CFC8019D
:10291000CF911F910F91FF90EF90DF90CF90BF90DC
:10292000AF909F908F900895FF920F931F93CF9336
:10293000DF931F921F92CDB7DEB7F82E22E030E072
:10294000AE014F5F5F4F66E270E035DD09811A81AD
:1029500010270127102722E030E0AE014F5F5F4FC4
:1029600066E270E08F2D27DD89819A81982789277B
:1029700098270817190749F4C8010F900F90DF91A5
:10298000CF911F910F91FF9008958C01E4CF1F9379
:10299000CF93DF93182F87E0189FE0011124C65CC6
:1029A000D74F88819981009759F480E591E00E9482
:1029B0002002812FB9DF2E81821B910999838883A0
:1029C000DF91CF911F910895FC018485883008F430
:1029D000DECF90E080E008954F925F927F928F92D9
:1029E0009F92AF92BF92CF92DF92EF92FF920F939E
:1029F0001F93CF93DF931F921F92CDB7DEB7782E30
:102A00006B014A01A82EB12C27E0829FC00111243E
:102A1000FC01E65CF74F7F010081118180E591E0C8
:102A20000E942002081519054CF4872D7DDFF7015F
:102A300026818C01021B11091183008301151105E8
:102A400021F563E070E0872DE8DB843159F08823BD
:102A500049F001E010E08C3111F410E000E0119534
:102A600001951109C8010F900F90DF91CF911F912F
:102A70000F91FF90EF90DF90CF90BF90AF909F901D
:102A80008F907F905F904F900895801691060CF480
:102A9000840187E08A9DF0018B9DF00D1124E65C96
:102AA000F74FE280F380C114D10441F12701F7E030
:102AB0005F22872D0E948807840D951D2091720842
:102AC000273309F450C09801240D351D21303840BA
:102AD00008F449C020E038E0490184189508A401B1
:102AE000B6010FD92601480C591C6801C818D9082D
:102AF000872D0E948807A601B20103D9E00EF11EBE
:102B000087E08A9DF0018B9DF00D1124E65CF74F64
:102B1000F382E28220813181201B310B31832083BB
:102B20008681800F912F911D8A3F910510F4232BF0
:102B3000E9F487E08A9DF0018B9DF00D1124E65C9D
:102B4000F74F1682F982EA8222E030E0AE014F5F51
:102B50005F4F68E270E0872D0E94AA0860E470E091
:102B6000872D68DB7FCFA801B601C7CF86837ACFD8
:102B7000CF93DF93FC01218D328D2115310529F48E
:102B80008FEF9FEFDF91CF910895EC01808D421779
:102B9000530708F0A90120DF181619068CF7298DB4
:102BA0003A8D281B390B3A8F298FECCF0F931F9347
:102BB000CF93DF931F92CDB7DEB7FC01218D328D0D
:102BC000232B41F48FEF9FEF0F90DF91CF911F9157
:102BD0000F9108958C0141E050E0BE016F5F7F4F7F
:102BE000FC01808DF9DE1816190664F7F801818D55
:102BF000928D0197928F818F898190E0E5CFCF935D
:102C0000DF931F92CDB7DEB741E050E0BE016F5FAA
:102C10007F4FFC018485E0DE1816190634F48981A3
:102C200090E00F90DF91CF9108958FEF9FEFF9CF54
:102C3000FC018485883008F4CFCE90E080E00895D0
:102C40008F929F92AF92BF92CF92DF92EF92FF92BC
:102C50000F931F93CF93DF9300D000D000D01F922B
:102C6000CDB7DEB790917208911115C018E0812F91
:102C70002A960FB6F894DEBF0FBECDBFDF91CF917D
:102C80001F910F91FF90EF90DF90CF90BF90AF908A
:102C90009F908F90089528E0F22E933311F494E0E2
:102CA000F92E6B01082F80E591E00E9420029E0121
:102CB0002F5F3F4F5901490110E063E070E0812F21
:102CC000ACDAF40181934F018823B9F01F5FF11250
:102CD000F4CFF12CF50191915F019D3149F09831CC
:102CE00039F09A51923020F0F3941F11F3CFBECFF8
:102CF00060E170E08F2D9EDA1F2DE12EF12C83EE26
:102D000093E00197F1F7402F70E060E0812F0E947F
:102D100018094FEF62E070E0812F0E941809B60198
:102D2000CD2889F4809105029091060201968115C3
:102D3000F0EC9F0788F19093060280930502609162
:102D4000050270910602812F0E94CF0861E070E0B9
:102D5000812F70DA27E02E9DC0012F9D900D112448
:102D60009C01265C374F7901F9011182108222E023
:102D700030E0AE01475F5F4F68E270E0812F1BDB00
:102D800089859A85982789279827F70193838283D5
:102D90001682158214826BCF80E090ECCCCF0F931B
:102DA0001F93CF93DF93EC018B01888D883008F45B
:102DB0005BDAB80182E044DF888F883050F41D87E9
:102DC0000C871A8E198E81E0DF91CF911F910F91A0
:102DD000089580E0F9CFCF92DF92EF92FF921F9398
:102DE000CF93DF93EC017B016A018C85883038F446
:102DF00052DA882311F08C852CDA88E08C87F70171
:102E000082819381A481B5810097A105B10551F418
:102E100090E080E0DF91CF911F91FF90EF90DF90E5
:102E2000CF9008958F3F9F4FAF4FBF4F89F370E012
:102E300060E081E205DF182F8C87883048F780E555
:102E400091E00E942002A7014E5F5F4F24E030E036
:102E50006CE070E0812F0E94AA08B601812F0E94C9
:102E6000BA0864E070E0812FE5D90E94FE046B018E
:102E70007C018C8510DA873109F18C31F9F08823D7
:102E800039F20E94FE04AB01BC014C195D096E09C8
:102E90007F098D859E85B0E0A0E084179507A60781
:102EA000B70738F061E070E080E090E00E94CD0468
:102EB000E0CF8C85D9D988E08C87AACF81E090E0DB
:102EC000A9CF0F931F93CF93DF931F921F92CDB77C
:102ED000DEB7FC0124852830D8F48C0180E591E030
:102EE0000E94200222E030E0AE014F5F5F4F60E1C0
:102EF00070E0F80184855FDA89819A8198278927B3
:102F000098270F900F90DF91CF911F910F91089507
:102F100090E080E0F6CF0F931F93CF93DF931F9243
:102F20001F92CDB7DEB7FC0124852830D8F48C0180
:102F300080E591E00E94200222E030E0AE014F5F88
:102F40005F4F64E070E0F801848535DA89819A8109
:102F50009827892798270F900F90DF91CF911F9185
:102F60000F91089590E080E0F6CF0F931F93CF93D9
:102F7000DF9300D000D01F921F92CDB7DEB78C0137
:102F8000D80159964D915C915A974115510551F0D0
:102F9000ED91FC91048CF58DE02D70E060E0C801AE
:102FA0001995EECFF801808DF2DC892BA9F148E06C
:102FB00050E0BE016F5F7F4FD80158968C910CDDB9
:102FC00018161906F4F4D801509684E0FE013196E3
:102FD00001900D928A95E1F78D8190E0982F8827D6
:102FE0002E81820F911DF801958B848B8F81282F64
:102FF00030E0322F22278885820F932F911D928FE8
:10300000818F28960FB6F894DEBF0FBECDBFDF913B
:10301000CF911F910F91089590E080E0F2CF4F92F1
:103020005F926F927F928F929F92AF92BF92CF9258
:10303000DF92EF92FF920F931F93CF93DF93CDB761
:10304000DEB763970FB6F894DEBF0FBECDBF7C012D
:103050006B013A01FB0120E090E080E06AE03191F1
:10306000332309F45FC040ED430F4A3008F04BC0F2
:10307000689FA001699F500D1124CA01C097830F5A
:10308000911D37FD9A958F3F910549F340F3F70164
:10309000428153816481758180916B0B90916C0B9F
:1030A000A0916D0BB0916E0B481759076A077B070B
:1030B00009F4F1C18701085F1F4F0E94FE046F7081
:1030C00077277C5FC8016BDE813009F0E9C18DEBA9
:1030D00092E09A838983F70182819381A481B581EB
:1030E0008B839C83AD83BE8345E350E0BE016F5F5D
:1030F0007F4FC8010E94E408892BA1F5D12CC12C77
:10310000C801BDD817C03E3209F0C1CF233009F441
:10311000BECFD301A20FB11D12968C932F5F90E00A
:1031200080E09DCF233009F0B2CFF3018583CC241A
:10313000C394D12CC60163960FB6F894DEBF0FBEC0
:10314000CDBFDF91CF911F910F91FF90EF90DF9056
:10315000CF90BF90AF909F908F907F906F905F9037
:103160004F9008950E94FE04F7017783668342E042
:1031700050E0B7016A5F7F4FC8012BDB81E090E030
:103180009A83898342E050E0BE016F5F7F4FC801A0
:1031900020DB80E091E09A83898342E050E0BE0129
:1031A0006F5F7F4FC80115DB1A82198242E050E041
:1031B000BE016F5F7F4FC8010CDB42E050E0BE01F3
:1031C0006F5F7F4FC80105DB42E050E0BE016F5FDB
:1031D0007F4FC801FEDA5601F60180818823F1F0A5
:1031E0006501F60181912F01882311F08E32A1F43F
:1031F00046018A189B081814190464F48D8641E06E
:1032000050E0BE01635F7F4FC801E3DAA401B5015E
:10321000C801DFDA5201E0CF6201E3CF1D8641E051
:1032200050E0BE01635F7F4FC801D3DAC12CDD24BB
:10323000D394DA82C98242E050E0BE016F5F7F4FD3
:10324000C801C7DADA82C98242E050E0BE016F5F8E
:103250007F4FC801BEDAC80180D8892B09F44ECF50
:10326000F3E0AF2EB12C230122E0420E511CC9C065
:10327000F7014281538164817581808D918DA28D8A
:10328000B38D481759076A077B0709F0FAC0848D88
:10329000958DC59709F0F5C081A192A15DEFC52E6E
:1032A000DD24DA940C970CF4A2C04CE050E0BE018F
:1032B0006F5F7F4FC8015CDC8B819C8198278927D9
:1032C00098279A8B898BF7014681578129813A810A
:1032D0004217530709F0DAC097FFD8C08F70927079
:1032E0003BEFC32EDD24DA94892B09F080C06F8078
:1032F00078847624672476242AEFC22EDD24DA949B
:103300006114710409F473C0D12CC12C8D819E818C
:10331000982789279827C816D906E0F441E050E09D
:10332000BE01635F7F4FC80123DC4D85442329F034
:1033300050E070E060E0C8011BDC8D858111EECFAC
:1033400044E050E070E060E0C80112DCFFEFCF1A0B
:10335000DF0ADCCF912C812C41E050E0BE016D5E94
:103360007F4FC80105DC4B89842F807C09F065C044
:10337000442329F050E070E060E0C801F9DB8B895C
:103380008111EACF42E050E0BE01615F7F4FC8018A
:10339000EFDB42E050E0BE01635F7F4FC801E8DB36
:1033A00044E050E070E060E0C801E2DB42E050E061
:1033B000BE016F5E7F4FC801DBDB8F85988949892D
:1033C0005A898115914009F040C0CD84DE84DC2407
:1033D000CD24DC2481E0C816D104B9F54115544050
:1033E00009F046C044E050E0B201C801C1DB21E071
:1033F000A21AB10809F484CEFFEFCF16DF0609F058
:103400007FCE0E94FE043B014C01C801AEDD1816C0
:1034100019060CF42DCF0E94FE046619770988095D
:103420009909693873418105910538F562E370E0C7
:1034300080E090E00E94CD04E8CF41E050E070E0F1
:1034400060E0C80195DB1B8A9ACF54274527542793
:1034500070E060E0C8018CDBFFEF8F1A9F0A6814F0
:10346000790409F079CF96EFC92EDD24DA94BFCF25
:10347000E7EFCE2EDD24DA94BACFCC24CA94DC2C2C
:10348000B6CF6EEFC62EDD24DA94B1CF4CEFC42E4A
:10349000DD24DA94ACCF8EEFC82EDD24DA944ACE48
:1034A000D12CC12C47CECF92DF92EF92FF920F9397
:1034B0001F93CF93DF93CDB7DEB7AF970FB6F894D6
:1034C000DEBF0FBECDBF7C016A010DEB12E01A8397
:1034D00009831C861B8688EE93E0A0E0B0E08D8710
:1034E0009E87AF87B88B8DE192E09A878987188F86
:1034F0000F8B198E1A8E1B8E1C8E88E089A31BA73A
:103500000AA71CA61DA61EA61FA680915F0B909160
:10351000600BA091610BB091620B8EA39FA3A8A733
:10352000B9A78B839C83AD83BE8318861F82AE01AF
:10353000465D5F4FCE01019672DD81309105B1F499
:10354000D701ED91FC910488F589E02D1DA30CA312
:103550008CA59DA5AEA5BFA58EA39FA3A8A7B9A71F
:10356000A601BE016C5D7F4FC7011995AF960FB6DE
:10357000F894DEBF0FBECDBFDF91CF911F910F91A9
:10358000FF90EF90DF90CF900895CF92DF92EF926F
:10359000FF920F931F93CF93DF93CDB7DEB7AF9713
:1035A0000FB6F894DEBF0FBECDBF8C016B017A0160
:1035B0008DEB92E09A8389831B821C821D821E827E
:1035C0001C861B8648EE53E060E070E04D875E8706
:1035D0006F87788B2DE132E03A872987988F8F8B20
:1035E000198E1A8E1B8E1C8E28E029A39BA78AA7F2
:1035F0001CA61DA61EA61FA6D8011C968C9188305D
:1036000060F40E944B11882321F0F80184850E9408
:10361000291188E0D8011C968C9380915F0B9091C2
:10362000600BA091610BB091620B8EA39FA3A8A722
:10363000B9A78B839C83AD83BE8318861F82AE019E
:10364000465D5F4FB601CE010196E9DC0097C1F0FF
:10365000D801ED91FC910684F785E02D8DEB92E089
:103660009DA38CA38CA59DA5AEA5BFA58EA39FA34E
:10367000A8A7B9A7A701BE016C5D7F4FC801199526
:10368000AF960FB6F894DEBF0FBECDBFDF91CF91DE
:103690001F910F91FF90EF90DF90CF900895EF92E0
:1036A000FF920F931F93CF93DF9300D01F92CDB75C
:1036B000DEB78C017B01FB0184858830A8F08DEB9F
:1036C00092E0F80191838083128213821482158222
:1036D000C8010F900F900F900F90DF91CF911F9125
:1036E0000F91FF90EF90089580E591E00E942002F5
:1036F00024E030E0AE014F5F5F4F6CE070E0F70117
:1037000084850E94DB118DEB92E0F8019183808328
:1037100089819A81AB81BC8182839383A483B583A1
:10372000D7CF0C942C2C0C94242C1F920F920FB6F4
:103730000F9211240BB60F922F933F934F935F93E9
:103740006F937F938F939F93AF93BF93EF93FF9369
:103750008FEB98E00E94EA02FF91EF91BF91AF9149
:103760009F918F917F916F915F914F913F912F9199
:103770000F900BBE0F900FBE0F901F9018951F92C9
:103780000F920FB60F9211240BB60F922F933F9307
:103790004F935F936F937F938F939F93AF93BF9359
:1037A000EF93FF938FEB98E00E947002FF91EF91EF
:1037B000BF91AF919F918F917F916F915F914F9149
:1037C0003F912F910F900BBE0F900FBE0F901F9047
:1037D00018951F920F920FB60F9211240BB60F92ED
:1037E0002F933F934F935F936F937F938F939F9309
:1037F000AF93BF93EF93FF938CE599E00E94EA02A9
:10380000FF91EF91BF91AF919F918F917F916F91B8
:103810005F914F913F912F910F900BBE0F900FBE74
:103820000F901F9018951F920F920FB60F921124B0
:103830000BB60F922F933F934F935F936F937F93AA
:103840008F939F93AF93BF93EF93FF938CE599E092
:103850000E947002FF91EF91BF91AF919F918F9164
:103860007F916F915F914F913F912F910F900BBE80
:103870000F900FBE0F901F9018951F920F920FB6CA
:103880000F9211240BB60F922F933F934F935F9398
:103890006F937F938F939F93AF93BF93EF93FF9318
:1038A00089EF99E00E94EA02FF91EF91BF91AF91F9
:1038B0009F918F917F916F915F914F913F912F9148
:1038C0000F900BBE0F900FBE0F901F9018951F9278
:1038D0000F920FB60F9211240BB60F922F933F93B6
:1038E0004F935F936F937F938F939F93AF93BF9308
:1038F000EF93FF9389EF99E00E947002FF91EF919F
:10390000BF91AF919F918F917F916F915F914F91F7
:103910003F912F910F900BBE0F900FBE0F901F90F5
:1039200018951F920F920FB60F9211240BB60F929B
:103930002F933F934F935F936F937F938F939F93B7
:10394000AF93BF93EF93FF9386E99AE00E94EA0258
:10395000FF91EF91BF91AF919F918F917F916F9167
:103960005F914F913F912F910F900BBE0F900FBE23
:103970000F901F9018951F920F920FB60F9211245F
:103980000BB60F922F933F934F935F936F937F9359
:103990008F939F93AF93BF93EF93FF9386E99AE042
:1039A0000E947002FF91EF91BF91AF919F918F9113
:1039B0007F916F915F914F913F912F910F900BBE2F
:1039C0000F900FBE0F901F9018951F920F920FB679
:1039D0000F9211242F933F938F939F93AF93BF9395
:1039E0008091660790916707A0916807B091690779
:1039F0003091650723E0230F2D3758F50196A11D5F
:103A0000B11D209365078093660790936707A09385
:103A10006807B093690780916A0790916B07A0913E
:103A20006C07B0916D070196A11DB11D80936A07C7
:103A300090936B07A0936C07B0936D07BF91AF9104
:103A40009F918F913F912F910F900FBE0F901F90DC
:103A5000189526E8230F0296A11DB11DD2CF1F9203
:103A60000F920FB60F9211240F900FBE0F901F9060
:103A700018951F920F920FB60F9211240BB60F924A
:103A80002F933F934F935F936F937F938F939F9366
:103A9000AF93BF93EF93FF938091B900887F8036F7
:103AA00009F44DC008F040C0883209F4A9C028F5D7
:103AB000803109F49DC0C8F4882309F4FBC0883024
:103AC00009F496C0FF91EF91BF91AF919F918F91B3
:103AD0007F916F915F914F913F912F910F900BBE0E
:103AE0000F900FBE0F901F901895883109F488C071
:103AF000803241F78093980814C0803409F49DC047
:103B000040F48033B9F38833E9F68093980885EC64
:103B1000B0C0803509F485C0883509F496C0883472
:103B200089F60E94D205CECF883909F48CC038F5C9
:103B3000883729F050F4883611F0803719F683E081
:103B400080939A081092620757C0883809F47BC0A6
:103B5000803919F0803809F0B5CF80916207803242
:103B600008F071C0E091620781E08E0F80936207D8
:103B70008091BB00F0E0EE5BF84F80833DC0803B5E
:103B800039F0E0F4803A09F479C0883A09F09ACF24
:103B900084E080939A081092410710924007E091C8
:103BA0007007F091710719958091400781110FC03E
:103BB00081E0809340071092200709C0803C09F4FF
:103BC000A6CF883C09F4A3CF883B09F07BCFE091D6
:103BD000410781E08E0F80934107F0E0E05EF84FEF
:103BE00080818093BB00909141078091400729C05C
:103BF000809175088093BB0085EC8093BC0062CFF8
:103C00009091970880919608981758F5E091970839
:103C100081E08E0F80939708F0E0EA58F74F80819B
:103C2000E9CFE091970881E08E0F8093970880910B
:103C3000BB00F0E0EA58F74F80839091970880919D
:103C400096089817C8F285E8D8CFE091970881E0E8
:103C50008E0F809397088091BB00F0E0EA58F74FF1
:103C600080838091990881115CCF81E080937408F2
:103C700084EA8093BC0010929A0824CF85EC80934C
:103C8000BC0010929A0880916207803230F4E09173
:103C90006207F0E0EE5BF84F10826091620770E01F
:103CA000E0916E07F0916F0782E497E0199510920A
:103CB000620708CF1092980834CF1F920F920FB668
:103CC0000F9211240BB60F922F933F934F935F9354
:103CD0006F937F938F939F93AF93BF93EF93FF93D4
:103CE000E0917407F09175071995FF91EF91BF91DD
:103CF000AF919F918F917F916F915F914F913F9184
:103D00002F910F900BBE0F900FBE0F901F90189524
:103D1000CF92DF92EF92FF920F931F93CF93DF9397
:103D2000EFEBF8E01382128248EE53E060E070E0BF
:103D300044835583668377838DE592E09183808306
:103D400025E331E03587248724E331E03787268770
:103D500020E331E0318B208B21E331E0338B228B68
:103D600022E331E0358B248B26E331E0378B268B41
:103D7000118E128E138E148EECE5F9E013821282EE
:103D800044835583668377839183808325ED30E078
:103D90003587248724ED30E03787268720ED30E013
:103DA000318B208B21ED30E0338B228B22ED30E004
:103DB000358B248B26ED30E0378B268B118E128EBF
:103DC000138E148EE9EFF9E0138212824483558337
:103DD00066837783918380832DEC30E03587248759
:103DE0002CEC30E03787268728EC30E0318B208BB5
:103DF000A9ECB0E0B38BA28BAAECB0E0B58BA48B9E
:103E0000AEECB0E0B78BA68B118E128E138E148E93
:103E1000E6E9FAE01382128244835583668377834E
:103E20009183808385EC90E09587848784EC90E093
:103E30009787868780EC90E0918B808B81EC90E077
:103E4000938B828B82EC90E0958B848B86EC90E058
:103E5000978B868B118E128E138E148EE3E3FBE00C
:103E60001382128244835583668377838FE692E0C0
:103E700091838083EFE3FBE08DEB92E0918380837D
:103E80001282138214821582E5E4FBE09183808321
:103E90001282138214821582EBE4FBE0918380830B
:103EA0001282138214821582E1E5FBE09183808304
:103EB0001282138214821582E7E5FBE091838083EE
:103EC0001282138214821582E3E6FBE091838083E1
:103ED0001282138214821582EDE5FBE091838083C8
:103EE0001282138214821582E9E6FBE091838083BB
:103EF0001282138214821582EFE6FBE091838083A5
:103F00001282138214821582EDECFDE0918380838E
:103F10001282138214821582EFE6FDE01482A3E080
:103F2000A583A2E0A683C8EED3E0D093C30DC093CF
:103F3000C20DEDE6FDE0BAE0B18310821092640C90
:103F40001092660D1092650D1092680D1092670D1B
:103F500010926A0D1092690D10926C0D10926B0DFB
:103F6000E5E5FCE013821282448355836683778300
:103F70004FE852E05183408348E04487D687C587A5
:103F8000EFE4FCE09183808350EC528348EA438362
:103F9000148264E66583E9E4FCE0918380835283C4
:103FA0004383148285E68583EBE3FCE0138212826F
:103FB00081E892E091838083A48384E185838CE30C
:103FC000868301E010E0108707831286118613862E
:103FD0008FEF8587C4E1DCE081E0888382E090E0B8
:103FE0009D8B8C8B3F8B2E8B188E198E1A8E84E6B0
:103FF00090E098A38F8F19A21AA21BA21CA21DA247
:104000001EA288E3898387E38A8386E38B830E94E9
:10401000FE046C837D838E839F83688779878A877C
:104020009B876C877D878E879F876B8F7C8F8D8F1B
:104030009E8F0E949004AEE0BCE081E49EE0119669
:104040009C938E9313961C921E92129780E09DE093
:1040500015969C938E931497E8E0FCE08DE19DE02B
:10406000918380831382128286E29DE0958384830C
:10407000E2E0FCE08BE29DE0918380831382128278
:1040800082E49DE095838483ECEFFBE087E49DE090
:10409000918380831382128283E59DE095838483DC
:1040A000E6EFFBE08CE59DE0918380831382128232
:1040B00083E79DE095838483E0EFFBE081E89DE06A
:1040C00091838083138212828FEA9DE0958384839B
:1040D000E5EEFBE0B183A083138212821582148285
:1040E00011861086128662E086E30E945404E7ED92
:1040F000FBE086E390E09183808384E6C82ED12C98
:10410000E12CF12CC282D382E482F58216821782DE
:10411000108611861387028762E089E30E945404A7
:10412000E9ECFBE089E390E091838083C282D38253
:10413000E482F58216821782108611861387028721
:1041400062E08AE30E945404EBEBFBE08AE390E038
:1041500091838083C282D382E482F58216821782A1
:10416000108611861387028762E08BE30E94540455
:10417000EDEAFBE08BE390E091838083C282D382FF
:10418000E482F582168217821086118613870287D1
:1041900062E08CE30E945404EFE9FBE08CE390E0E2
:1041A00091838083C282D382E482F5821682178251
:1041B000108611861387028762E08DE30E94540403
:1041C000E1E9FBE08DE390E091838083C282D382BA
:1041D000E482F58216821782108611861387028781
:1041E00062E08EE30E945404E3E8FBE08EE390E09B
:1041F00091838083C282D382E482F5821682178201
:10420000108611861387028762E08FE30E945404B0
:10421000E5E7FBE08FE390E091838083C282D38265
:10422000E482F58216821782108611861387028730
:10423000DF91CF911F910F91FF90EF90DF90CF9082
:104240000895CF93DF93CDB7DEB72E970FB6F894CE
:10425000DEBF0FBECDBF789484B5826084BD84B5C7
:10426000816084BD85B5826085BD85B5816085BD71
:1042700080916E00816080936E0010928100809129
:1042800081008260809381008091810081608093B1
:104290008100809180008160809380008091B100D6
:1042A00084608093B1008091B00081608093B00001
:1042B0008091910082608093910080919100816053
:1042C0008093910080919000816080939000809114
:1042D000A10082608093A1008091A1008160809301
:1042E000A1008091A00081608093A00080912101B5
:1042F000826080932101809121018160809321015E
:104300008091200181608093200180917A008460F7
:1043100080937A0080917A00826080937A00809105
:104320007A00816080937A0080917A00806880931F
:104330007A001092C10090E080E0F5D98093DD070B
:1043400081E090E0F0D98093F80782E090E0EBD92B
:104350008093A40783E090E0E6D98093AA0784E0E5
:1043600090E0E1D98093DE0785E090E0DCD980938E
:10437000A30740E052EC61E070E086E99AE00E9419
:10438000A40128EB3DE049E050E062E07CE08EE0F3
:104390009CE00E94010B2DEB3DE04AE050E068E01C
:1043A0007CE08EE09CE00E94010B22EC3DE041E0CD
:1043B00050E06CEF7BE082E09CE00E94010B27EC78
:1043C0003DE042E050E062E07CE08CEF9BE00E9448
:1043D000010B2CEC3DE045E050E066EF7BE08CEF1C
:1043E0009BE00E94010B21ED3DE046E050E06CEFC8
:1043F0007BE086EF9BE00E94010B26ED3DE047E06D
:1044000050E060EF7BE082E09CE00E94010B2BED2E
:104410003DE047E050E060EF7BE08CEF9BE00E94E6
:10442000010B20EE3DE047E050E060EF7BE086EFDF
:104430009BE00E94010B25EE3DE048E050E06EE07D
:104440007CE080EF9BE00E94010B2AEE3DE048E01B
:1044500050E06EE07CE088E09CE00E94010B2AEED8
:104460003DE04BE050E06EE07CE088E09CE00E94A4
:10447000010B82E09EE09093E40B8093E30B80EECF
:104480009AE09093D60B8093D50B8AED9AE09093A7
:10449000C80B8093C70B88E292E09093BA0B80938D
:1044A000B90B81E392E09093AC0B8093AB0B84ED5E
:1044B0009AE090939E0B80939D0B80E795E09093FC
:1044C000900B80938F0B8FEE9DE09093820B8093E7
:1044D000810B21E020938A0783E080938B07109261
:1044E0008D0710928C0784E090E090938F07809363
:1044F0008E074AE757E05093910740939007209327
:10450000920720E120939307909395078093940757
:10451000909397078093960782E897E09093990786
:104520008093980781E090E09093830780938207BF
:104530008091740D823009F4BFC1833009F4BFC18A
:10454000813009F0BFC189EF99E09093700D80939D
:104550006F0D40E05BE460E070E080916F0D909142
:10456000700D0E94A4018091750D823078F08091C9
:104570000401806680930401809105018F7B809304
:104580000501809105018F7D8093050180916F0D5C
:104590009091700DDC01ED91FC910284F385E02D8A
:1045A000199597FFF3CF1092B80D1092B90D109294
:1045B000C10D1092C00D1092BF0D1092BE0D109241
:1045C000BD0D1092BC0D84E690E09093C30D8093D6
:1045D000C20D0E94FE04665F7F4F8F4F9F4F609316
:1045E0009B0770939C0780939D0790939E07109262
:1045F0009F0710929A0710927307109272071092F9
:104600009C081092BE0810929A0811E01093990825
:104610001092740861E084E10E94270461E085E162
:104620000E9427048091B9008E7F8093B900809109
:10463000B9008D7F8093B90088E48093B80085E449
:104640008093BC008AE392E0909371078093700797
:104650008BE392E090936F0780936E078091410CFB
:1046600010939B088093BD0810929C081092BE087E
:1046700060E083E39BE00E94580668E383E39BE0ED
:104680000E9458066AE070E080E090E00E94CD044D
:1046900069E383E39BE00E9458066AE070E080E0F3
:1046A00090E00E94CD0484E190E00E94860683E7BA
:1046B00090E00E9486068EE590E00E9486068DE6D8
:1046C00090E00E9486068CE090E00E94860681E0E1
:1046D00090E00E94860686E090E00E9486060E9496
:1046E00047018093470C811102C01093460C60E093
:1046F0008BE39CE00E94AD066FE275E08BE39CE0EB
:104700000E94800E61E08BE39CE00E94AD066DE3A9
:1047100075E08BE39CE00E94800E8091460C88231C
:1047200029F061E08BE39CE00E948A0611E010937F
:10473000140C0E94900485E090E09093290C8093E3
:10474000280C9093340C8093330C0E94340961E060
:1047500082E00E94540461E083E00E94540461E01E
:1047600084E00E94540461E085E00E94540461E00A
:1047700086E00E94540461E087E00E94540461E0F6
:1047800088E00E94540461E089E00E94540461E0E2
:104790008AE00E94540461E08BE00E94540461E0CE
:1047A0008CE00E94540461E08DE00E94540462E0B9
:1047B00086E30E94540462E087E30E94540462E0AE
:1047C00088E30E94540460E089E30E94540460E09E
:1047D0008AE30E94540460E08BE30E94540460E08A
:1047E0008CE30E94540460E08DE30E94540460E076
:1047F0008EE30E94540460E08FE30E94540460E062
:1048000082E10E94540460E083E10E94540480E14C
:10481000809381001092800080E49FE19093870054
:104820008093860081E1809381008AE59AE09093ED
:1048300075078093740710936F008BE30E94FF034A
:10484000892B09F442C01093A2078CE30E94FF0356
:10485000892BF1F181E08093F9078DEB92E09A8347
:1048600089838091510C9091520CA091530CB0917E
:10487000540C8B839C83AD83BE83CE0101960E9432
:1048800060108AE080930302E0917208E353E53000
:1048900030F4F0E0ED5BFD4F8081811137C069E4B9
:1048A00075E086E99AE00E94EE0C61E070E080E03D
:1048B00090E00E94CD04F9CF8CE599E046CE8FEBD5
:1048C00098E043CE86E99AE040CE1092A207BDCF91
:1048D0001092F907C2CF0E94740F81111BC021C032
:1048E00080E591E00E94200285E390E00E944C0F59
:1048F00085FD17C06FE875E086E99AE00E94EE0C2E
:1049000064EF71E080E090E00E94CD048091730834
:10491000882309F380917208843311F3873309F4F3
:1049200050C068EE73E080E090E00E94CD0460EB40
:1049300075E086E99AE00E94EE0C8DEB92E09A8396
:10494000898380914B0C90914C0CA0914D0CB091AF
:104950004E0C8B839C83AD83BE8340EA53E1BE0142
:104960006F5F7F4F85E59CE00E94EB166BEC76E075
:10497000892B11F465EE76E086E99AE00E94EE0C50
:104980007724739456E0652ECC24C394D12C70E523
:10499000272E72E0372E14E6E4E64E2E512C80913D
:1049A0009F07813059F1C0F0823009F4A6C180918F
:1049B000A007882309F41CC31092A00788E090E0A8
:1049C00015C380E591E00E9420028EE290E00E94F3
:1049D0004C0F80FDA6CF8ECF0E94FE0480909B07D7
:1049E00090909C07A0909D07B0909E078616970612
:1049F000A806B906E0F670929F07D9CF20919A07D2
:104A0000B8E02B9F900111242657384F88E0F90118
:104A1000DE01119601900D928A95E1F7F90150811E
:104A2000418162817381848195810680F781E02DC7
:104A30002091730D2111AEC02091760D2111AAC0D5
:104A40002FEF250F273F08F0A5C0F093BB0DE09393
:104A5000BA0D5093780D4093790D70937A0D609351
:104A60007B0D453009F4BBC008F0A2C0413008F00E
:104A7000AFC0F090B80D8F2D0E940402EF2DF0E032
:104A8000E159F24F9187E1E0EF0DF0E0E159F24F8B
:104A90008187F394F394F092B80D9091750D809105
:104AA000740D9230C0F0823009F4F0C0833009F404
:104AB000F3C0813009F0F6C09091C80090649093E3
:104AC000C8009091050190649093050190910501B3
:104AD0009062909305014091B80D50E0843008F049
:104AE000E7C080916F0D9091700DDC01ED91FC910C
:104AF0000280F381E02D68E77DE019959091750DB6
:104B00008091740D9230B8F0823009F4D6C08330B1
:104B100009F4D8C0813009F0DAC09091C80096FF3E
:104B2000FCCF909105019F7B909305019091050129
:104B30009F7D90930501843008F0CEC080916F0D69
:104B40009091700DDC01ED91FC910284F385E02DD4
:104B5000199597FFF3CF1092B80D0E94FE04209193
:104B6000C20D3091C30D620F731F811D911D6093A3
:104B7000C80D7093C90D8093CA0D9093CB0D809191
:104B8000BE0D9091BF0D01969093BF0D8093BE0D09
:104B90007092760D80919F078F5F80939F07809121
:104BA0009A078F5F823009F4A5C080939A07FFCEE1
:104BB0004F3009F14031B1F1463009F05ACF8181CF
:104BC00080937C0D808180937D0D4093B80D51CFF3
:104BD00090937C0D80937D0D6092B80D4ACF81E05B
:104BE00020813181232B09F480E0819580937C0D15
:104BF00010927D0DF1CF9C0144E0369527954A95A2
:104C0000E1F7220FAC014F705527452B09F02F5FBC
:104C100090937C0D80937D0D20937E0DF7E0F093B3
:104C2000B80D27CF90937C0D80937D0D282F220FF8
:104C300020937E0D27E02093B80D30E020E06091B6
:104C4000B80D462F50E071E0760FA72EB12C6E5FA5
:104C50002817390709F40DCFF18032964159524F88
:104C6000DA011996FC927093B80DA5014159524F83
:104C70005A01AF0142505109DA014C91D501199600
:104C80004C936093B80D2F5F3F4FD9CF9091D000D8
:104C900090649093D00015CF9091300190649093E0
:104CA00030010FCF9091C00090649093C00009CF65
:104CB0008091710D9091720D18CF9091D00096FF58
:104CC000FCCF2FCF9091300196FFFCCF2ACF90914F
:104CD000C00096FFFCCF25CF8091710D9091720D91
:104CE000DC01ED91FC910284F385E02D199597FF8D
:104CF000F3CF31CF10929A075ACEB0901D08809111
:104D0000740D843050F580916F0D9091700DDC0121
:104D1000ED91FC910084F185E02D1995F82E0E940B
:104D2000FE042091C80D3091C90D4091CA0D5091DB
:104D3000CB0D2617370748075907A0F41092760DB8
:104D4000BFEFB093770D8091C00D9091C10D01968A
:104D50009093C10D8093C00D1CC08091710D9091F6
:104D6000720DD5CFFF20A9F08091B90DF81609F486
:104D700061C0F092B90D0E94FE046B5F7F4F8F4FB0
:104D80009F4F6093C40D7093C50D8093C60D909393
:104D9000C70DF090760DF1100ACE10929F070E9479
:104DA000FE04665F7F4F8F4F9F4F60939B0770930A
:104DB0009C0780939D0790939E0780919A0781306E
:104DC00009F0F5CD20917E0730917F073093790768
:104DD00020937807809176079091770728173907F5
:104DE00009F0E3C080916E0D882319F08150809303
:104DF0006E0DFF24F39480916E0D8111F12C309390
:104E0000770720937607E1E0BE12D3C0D0928307E4
:104E1000C0928207109285071092840723E0B21295
:104E2000D3C0D0928707C09286071092890710924C
:104E30008807D5C00E94FE042091C40D3091C50D95
:104E40004091C60D5091C70D6217730784079507EF
:104E500008F49FCF1092B90D8091750D823050F0FB
:104E6000809105018F7B80930501809105018F7DE5
:104E7000809305011092B80D8091740DF12C84304F
:104E800050F18091710D9091720DDC01ED91FC91CA
:104E90000084F185E02D1995892B09F441C080919A
:104EA000710D9091720DDC01ED91FC910284F385FE
:104EB000E02D19959091B80DE92FF0E0E159F24FEE
:104EC00081879F5F9093B80D9034D8F2FF24F394BC
:104ED000D8CFFF24F39480916F0D9091700DDC0179
:104EE000ED91FC910084F185E02D1995892BC1F09D
:104EF00080916F0D9091700DDC01ED91FC91028419
:104F0000F385E02D19959091B80DE92FF0E0E15966
:104F1000F24F81879F5F9093B80D9034D0F6DBCF2E
:104F20008091BC0D9091BD0D01969093BD0D809325
:104F3000BC0DFF2061F08091C00D9091C10D0196D4
:104F40009093C10D8093C00D1092760DFCCE809190
:104F5000B80D8730CCF3E82EF12C82500E94040269
:104F6000F701E159F24F2781308523273227232784
:104F70002817390761F08091C00D9091C10D0196FD
:104F80009093C10D8093C00D1092760D02CF809149
:104F9000790D87FDF0CFE8E4F2E09191891709F4EB
:104FA000B1C32E163F06C9F7E6CFBAE0B0936E0D37
:104FB00026CF1092830710928207F2E0BF122ACF09
:104FC000D0928507C09284071092870710928607B7
:104FD00045E0B4122ACFD0928907C092880751E0E9
:104FE000F512E5CCF092A00787E090E00E944A0518
:104FF0008091A107811158C08AEF8093A107809109
:10500000460C882329F061E08BE39CE00E948A062D
:1050100080911D08813009F009C160E08BE39CE0BC
:105020000E94AD066EEB75E08BE39CE00E94800E63
:1050300061E08BE39CE00E94AD066091FE077091F9
:10504000FF07809100089091010840E00E940F0C3A
:1050500060E576E08BE39CE00E94800E64EC77E0F4
:105060008BE39CE00E94800E63E576E08BE39CE09E
:105070000E94800E2091FA073091FB074091FC07B7
:105080005091FD076091FE077091FF078091000825
:1050900090910108C4D541E00E940F0C66E576E0CE
:1050A0008BE39CE00E94800E87ED9BE00E94260728
:1050B00089EC9BE00E9426078BEB9BE00E94260771
:1050C0008DEA9BE00E9426078FE99BE00E9426075D
:1050D00081E99BE00E94260783E89BE00E94260767
:1050E00085E79BE00E9426078091A207882309F4A8
:1050F00041C160E089E00E94270461E08AE00E94EB
:10510000270460E084E00E94270461E085E00E94BB
:1051100027048091F907882309F43AC161E087E008
:105120000E94270460E086E00E9427048091A60781
:10513000882361F18091A507811128C01092A607EC
:105140006091DD0790E080E00E94911B6091F8077C
:1051500081E090E00E94911B6091A40782E090E0C2
:105160000E94911B6091AA0783E090E00E94911B2E
:105170006091DE0784E090E00E94911B6091A3079C
:1051800085E090E00E94911B609204028091EF0BF9
:1051900081110CC0E091E50BF091E60B7092EF0BE2
:1051A0000190F081E02D309709F01995E091E50B21
:1051B000F091E60B0280F381E02D309709F019950C
:1051C000B12CA12C912C812C8091ED0B9091EE0BA8
:1051D000881699060CF004C1E090EB0BF090EC0BF4
:1051E000EA0CFB1CD7012D913C9111978091E50BA6
:1051F0009091E60B2817390791F418968D919D919F
:105200000D90BC91A02D892B8A2B8B2B09F0C6C049
:105210000E94FE04F7016087718782879387FFEF02
:105220008F1A9F0A20E1A20EB11CCECF833041F429
:1052300060E08BE39CE00E94AD0665EC75E0F4CE87
:10524000853071F460E08BE39CE00E94AD068091B4
:10525000F90765ED75E08111E7CE65EE75E0E4CE06
:105260008230C1F460E08BE39CE00E94AD06809147
:10527000F90760EF75E0811102C06CEF75E08BE318
:105280009CE00E94800E6091A7078BE39CE00E9447
:105290009B0BCECE8111CCCE60E08BE39CE00E94D4
:1052A000AD06E0910402E73008F0C2CEF0E08827B6
:1052B000E45AF64D8F4F26C5662981298A299329FC
:1052C000A829B129632963E076E0AECE64E176E0F7
:1052D0008BE39CE00E94800E8091DD07612F06D554
:1052E00090E00E94DD0B6EE28BE39CE00E943C02AA
:1052F0008091DD07612FFAD4892F90E00E94DD0BA9
:1053000097CE6EE176E08BE39CE00E94800E609188
:10531000F807BBCF68E276E08BE39CE00E94800E4A
:105320006091A407B2CF62E376E08BE39CE00E9439
:10533000800E8091AA07612FD9D490E00E94DD0BE6
:105340006EE28BE39CE00E943C028091AA07D2CFE0
:105350006CE376E08BE39CE00E94800E6091DE07B8
:1053600094CF66E476E08BE39CE00E94800E60912F
:10537000A3078BCF61E089E00E94270460E08AE008
:105380000E94270461E084E00E94270460E0BECE12
:1053900060E087E00E94270461E0C5CE0E94FE0421
:1053A000D70118962D913D914D915C911B97621BF1
:1053B000730B840B950B1C962D913D914D915C9137
:1053C0001F97621773078407950708F428CFC70152
:1053D0000E940A05F70110861186128613861FCFD8
:1053E0008091A807882321F089E090E00E944A0577
:1053F0008091A707811108C080911D08823021F497
:1054000086E090E00E944A0585E59CE00E945611E6
:10541000882309F45EC085E59CE00E94E414892B92
:1054200089F085E59CE00E94FF15082FE09138087F
:10543000E93168F58E33F1F4F0E0E15EF74F108268
:105440001092380880911E08811143C010931E08E5
:10545000E0913908E73008F049C1F0E08827ED5CB9
:10546000F54D8F4F4FC4522A9A2ABA2ACF2AED2AD5
:10547000122B572B82ED800F8C3020F781E08E0F9E
:1054800080933808F0E0E15EF74F0083DBCF1092A5
:10549000380810921F0868E576E086E99AE00E94D5
:1054A000EE0CD0CF80911D0865E776E0823011F0D8
:1054B0006CE776E084E098E049D664E078E085E542
:1054C0009CE00E94800E709239085092030840922E
:1054D000020885E59CE00E945611811128C085E5EF
:1054E0009CE00E9477118DEB92E09A8789878091EA
:1054F0004B0C90914C0CA0914D0CB0914E0C8B87A5
:105500009C87AD87BE8740EA53E1BE01675F7F4F4E
:1055100085E59CE00E94EB16892B09F4ECC06BEB4F
:1055200076E086E99AE00E94EE0C109239080E941B
:10553000770335CA0E3381F48FE198E017D1BBD2DF
:105540006093FE077093FF07809300089093010813
:1055500082E080933908BDCF8091020890910308C2
:10556000892B09F0B6CF63E876E086E99AE00E94DD
:10557000EE0CEECF80911D086BE876E0823011F0E2
:1055800062E976E084E098E0E1D564E078E085E5E2
:105590009CE00E94800E43E04093390896CF0E3382
:1055A00071F48FE198E0E2D086D26093FA077093AD
:1055B000FB078093FC079093FD0784E0CACF80919E
:1055C000020890910308892B09F083CF63E876E005
:1055D00086E99AE00E94EE0CF0CF8091F9078111E4
:1055E0001EC08091F8074AE06FED77E090E0E4D0CC
:1055F00069E976E084E098E0A9D56FED77E084E092
:1056000098E099D561EB76E084E098E094D564E089
:1056100078E085E59CE00E94800E85E09ACF80913D
:10562000DE07E1CF8091F907811135C08091DD0758
:10563000612F5CD34AE064EC77E090E0BDD08091CC
:10564000DD07612F53D34AE06BEA77E0892F90E0C2
:10565000B3D06CEB75E084EC97E06DD56BEA77E046
:1056600084EC97E068D56FE976E084E098E06ED549
:1056700064EC77E084E098E05ED561EB76E084E06E
:1056800098E059D564E078E085E59CE00E94800EC2
:10569000609239081ECF8091AA07612F27D34AE074
:1056A00064EC77E090E088D08091AA07CACF80911F
:1056B000A90790911D08923091F481110DC070924C
:1056C000A90765EA76E084E098E040D564E078E0F8
:1056D00085E59CE00E94EE0C10923908FACE8130EC
:1056E000D9F71092A9076CEA76E0EDCF63EB76E08C
:1056F00086E99AE0EFCF65ED76E086E99AE00E94D0
:10570000EE0C15CF8350823008F03ECC90E080E064
:10571000E3E020917A0D2695821708F035CCAE2F64
:10572000B0E0AC01440F551F6091BA0D7091BB0DF4
:10573000460F571FA159B24F19962C9119971A96D7
:105740003C91232732272327DA012D933C93EE5FE8
:105750000196DFCFCF93DF93C5EEDBE08A819B819B
:1057600075D38E819F81DF91CF9170C31F93FC0110
:1057700099278827BC01E89411911032E9F3193078
:1057800010F01E30C8F31B3249F01D3241F468940A
:1057900005C01CD0610F711D811D911D1191105309
:1057A0001A30B8F33EF490958095709561957F4FCF
:1057B0008F4F9F4F1F910895BB274A3031F4992393
:1057C00022F4BDE2909581959F4F16C0592F482F26
:1057D000372F262F660F771F881F991F660F771F99
:1057E000881F991F620F731F841F951F660F771FF5
:1057F000881F991F0895BB27FB015527AA27880FEB
:10580000991FAA1FA41710F0A41B83955051B9F734
:10581000A05DAA3308F0A95DA193009779F7B111B3
:10582000B1931192CB0100C0DC01FC01672F719193
:105830007723E1F7329704C07C916D937083629176
:10584000AE17BF07C8F30895F999FECF92BD81BD89
:10585000F89A992780B50895262FF999FECF1FBA97
:1058600092BD81BD20BD0FB6F894FA9AF99A0FBE89
:1058700001960895A1E21A2EAA1BBB1BFD010DC0C3
:10588000AA1FBB1FEE1FFF1FA217B307E407F507F0
:1058900020F0A21BB30BE40BF50B661F771F881FCC
:1058A000991F1A9469F760957095809590959B0162
:1058B000AC01BD01CF0108955058BB27AA270ED0D7
:1058C00070C161D130F066D120F031F49F3F11F406
:1058D0001EF456C10EF4E095E7FB4CC1E92F72D1DE
:1058E00080F3BA17620773078407950718F071F4FD
:1058F0009EF58AC10EF4E0950B2EBA2FA02D0B0158
:10590000B90190010C01CA01A0011124FF27591B04
:1059100099F0593F50F4503E68F11A16F040A22F0A
:10592000232F342F4427585FF3CF4695379527957B
:10593000A795F0405395C9F77EF41F16BA0B620B7A
:10594000730B840BBAF09150A1F0FF0FBB1F661FC1
:10595000771F881FC2F70EC0BA0F621F731F841F04
:1059600048F4879577956795B795F7959E3F08F02A
:10597000B3CF9395880F08F09927EE0F97958795E9
:105980000895D4D008F481E008950CD00AC102D162
:1059900040F0F9D030F021F45F3F19F0EBC0511125
:1059A00034C1EEC00FD198F39923C9F35523B1F355
:1059B000951B550BBB27AA2762177307840738F07E
:1059C0009F5F5F4F220F331F441FAA1FA9F333D0DD
:1059D0000E2E3AF0E0E830D091505040E695001C91
:1059E000CAF729D0FE2F27D0660F771F881FBB1F4D
:1059F000261737074807AB07B0E809F0BB0B802D27
:105A0000BF01FF2793585F4F2AF09E3F510568F072
:105A1000B1C0FBC05F3FECF3983EDCF38695779511
:105A20006795B795F7959F5FC9F7880F911D969574
:105A3000879597F90895E1E0660F771F881FBB1FD0
:105A4000621773078407BA0720F0621B730B840B7D
:105A5000BA0BEE1F88F7E0950895BCD088F09F57E9
:105A600090F0B92F9927B751A0F0D1F0660F771FAA
:105A7000881F991F1AF0BA95C9F712C0B13081F08A
:105A8000C3D0B1E00895C0C0672F782F8827B85FD2
:105A900039F0B93FCCF3869577956795B395D9F7EB
:105AA0003EF490958095709561957F4F8F4F9F4FF5
:105AB0000895E89409C097FB3EF490958095709501
:105AC00061957F4F8F4F9F4F9923A9F0F92F96E94A
:105AD000BB279395F695879577956795B795F111BF
